:100000000C9456000C9473000C9473000C947300C1
:100010000C9473000C9473000C9473000C94730094
:100020000C9473000C9473000C9473000C94730084
:100030000C9473000C9473000C9473000C94730074
:100040000C9473000C9473000C9473000C94730064
:100050000C9473000C9473000C9473000C94730054
:100060000C9473000C94D2010C947E010C947300D8
:100070000C9473000C9473000C9473000C94730034
:100080000C9473000C9473000C9473000C94730024
:100090000C9473000C9473000C9473000C94730014
:1000A0000C9473000C9473000C94730011241FBE05
:1000B000CFEFDAE0DEBFCDBF11E0A0E0B1E0E8E6CF
:1000C000FFE002C005900D92AE31B107D9F712E002
:1000D000AEE1B1E001C01D92A535B107E1F70E9484
:1000E000B8050C94B2070C940000CF93C82F8A3047
:1000F00019F48DE00E94750020913E0230913F027C
:100100002F5F283C09F420E0E0913E02F0913F028D
:10011000EC58FE4FC083822F90E020913C0230913A
:100120003D0282179307C9F390933F0280933E02EA
:100130008091C90080628093C90080E090E0CF91F7
:100140000895EF92FF920F931F93CF93DF938C014B
:100150008091720190917301892B09F09DC0C2E2D8
:10016000D1E08091C80084FDAAC08091C80083FDC1
:10017000A9C080914E028D3061F48AE08883B80175
:100180000E94750082E291E0909373018093720166
:1001900083C08A3091F3893009F480E290EE980FA1
:1001A0009F3510F0803A98F091E0C137D90729F4D3
:1001B000B80187E00E947500D4CF7E01EFEFEE1A00
:1001C000FE0A8883B8010E947500E701CACF823118
:1001D00019F130F4833009F475C0883049F0C1CF8B
:1001E000873109F453C08F3719F0853141F1B9CF08
:1001F000F1E0C232DF0709F008F4B3CFB80188E0BC
:100200000E947500B80180E20E947500B80188E084
:100210000E9475002197A5CFB8018DE00E9475005E
:1002200082E2E82E81E0F82EEC16FD0608F099CF68
:10023000B801F70181917F010E947500F5CFF1E0CF
:10024000C232DF0709F008F48CCFB80188E00E94C1
:100250007500B80180E20E947500B80188E00E9434
:1002600075002197ECCFFE0182917F01803209F465
:1002700078CFB80188E00E947500B80180E20E9442
:100280007500B80188E00E947500E70181E0C23284
:10029000D80709F040F765CFE0917201F091730142
:1002A000CF010196909373018093720180818A300F
:1002B00021F4109273011092720190E005C08EEF4C
:1002C0009FEF02C08FEF9FEFDF91CF911F910F91B2
:1002D000FF90EF90089583E38093CC0010923F024B
:1002E00010923E0210923D0210923C02E9ECF0E0C6
:1002F00080818068808388E1808308951F920F92B7
:100300000FB60F9211242F933F938F939F93EF93E8
:10031000FF9320913E0230913F0280913C029091E8
:100320003D022817390731F48091C9008F7D8093F1
:10033000C9001DC0E0913C02F0913D02EC58FE4F17
:1003400080818093CE0080913C0290913D02019685
:1003500090933D0280933C0280913C0290913D023B
:10036000883C910521F410923D0210923C02FF91CD
:10037000EF919F918F913F912F910F900FBE0F9012
:100380001F901895CF93DF93EC018991882339F062
:1003900060915102709152020E947500F6CFDF9178
:1003A000CF9108951F920F920FB60F9211248F9341
:1003B0008091CE0080934E028F910F900FBE0F90D0
:1003C0001F9018951092B9008CE08093B8000895A2
:1003D00094EA9093BC009091BC0097FFFCCF909161
:1003E000B900987F983011F0903199F48093BB0058
:1003F00084E88093BC008091BC0087FFFCCF909183
:10040000B900987F983119F081E0903419F480E0B8
:10041000089581E0089524EA34E844E92093BC007B
:100420009091BC0097FFFCCF9091B900987F9830D5
:1004300011F0903199F78093BB003093BC009091FC
:10044000BC0097FFFCCF9091B900987F903211F0DB
:10045000983539F44093BC009091BC0094FDFCCFDA
:10046000DDCF08950C94E80184E98093BC0080916D
:10047000BC0084FDFCCF08958093BB0084E880938A
:10048000BC008091BC0087FFFCCF9091B900987FA1
:1004900081E0983209F480E0089584EC8093BC00F8
:1004A0008091BC0087FFFCCF8091BB00089584E859
:1004B0008093BC008091BC0087FFFCCF8091BB0083
:1004C0000895AF92BF92DF92EF92FF920F931F9326
:1004D000CF93DF9300D0CDB7DEB7182FD62E80EDA7
:1004E00049835A830E94E801812F0E943C028AE1DD
:1004F0008A95F1F700C081ED0E94E8014981A42EA0
:100500005A81B52E00E010E0ED2CF12CE1E0EE1A5E
:10051000F1080D1580F40E151F0519F40E945702FD
:1005200002C00E944D02F50180830F5F1F4FFFEF55
:10053000AF1ABF0AEECF0E9434028D2D0F900F909C
:10054000DF91CF911F910F91FF90EF90DF90BF90BF
:10055000AF90089561110C94610280E00895AB01A1
:1005600061E00C946102EF92FF920F931F93CF937F
:10057000DF9300D0CDB7DEB7082F162F662309F121
:1005800080ED49835A830E94E801802F0E943C023B
:100590004981042FE42E5A81F52E8E2D801B811760
:1005A00030F4F70181917F010E943C02F6CF0F9059
:1005B0000F90DF91CF911F910F91FF90EF900C94CE
:1005C00034020F900F90DF91CF911F910F91FF9008
:1005D000EF900895CF93DF931F92CDB7DEB7698375
:1005E000AE014F5F5F4F61E00E94B3020F90DF9159
:1005F000CF9108950F931F93CF93DF9300D01F9255
:10060000CDB7DEB7182F062F1982BE016F5F7F4F5F
:100610002B834A830E94AF022B814A81882309F1F0
:10062000602F70E0641B71096F5F7F4FE1E0F0E0C5
:1006300002C0EE0FFF1F4A95E2F73197062E01C068
:10064000EE0F0A94EAF701C0220F6A95EAF76E2FBF
:10065000609589816823E2236E2B6983812F0E9434
:10066000EA025F980F900F900F90DF91CF911F914A
:100670000F910895FF920F931F93CF93DF9300D0B4
:10068000CDB7DEB7F62E8901442339F1BE016F5F85
:100690007F4F4A830E94AF024A818823F9F06F2D71
:1006A00070E0641B71096F5F7F4FE1E0F0E002C012
:1006B000EE0FFF1F4A95E2F73197062E01C0EE0FAD
:1006C0000A94EAF749814E2350E002C055954795B8
:1006D0006A95E2F7F801408301C080E00F900F9027
:1006E000DF91CF911F910F91FF900895FF920F938B
:1006F0001F93CF93DF931F92CDB7DEB7F62E8A01FB
:10070000BE016F5F7F4F0E94AF0221E030E001C069
:10071000220FFA94EAF799819223F80190830F90BF
:10072000DF91CF911F910F91FF90089541110C948B
:10073000FA0208950F931F93CF93DF9300D0CDB7A4
:10074000DEB7182F062FBE016F5F7F4F4A830E94CE
:10075000AF0289814A8121E030E0002E01C0220FE2
:100760000A94EAF7442319F0682F622B03C0622F22
:10077000609568236983812F0E94EA020F900F9091
:10078000DF91CF911F910F91089540E066E08BE6D5
:100790000C949A0341E066E08BE60C949A038091F6
:1007A000410208950E94E2018AE18A95F1F700C0B2
:1007B00021E043E062E08BE60E94FA0223E043E09E
:1007C00062E08AE10E94FA0261E089E10E94EA02A5
:1007D00023E042E064E08BE10E94FA0223E042E081
:1007E00064E08CE10E94FA020C94C5038F929F9200
:1007F000AF92BF92CF92DF92EF92FF920F931F932F
:10080000CF93DF93EC015B016A01490140E452E0C0
:100810006EE08BE30E94AA02209140028091410287
:1008200090E0922B99838883209142028091430229
:1008300090E0922BF5019183808320914402809176
:10084000450290E0922BF60191838083209148022B
:100850008091490290E0922BF40191838083209152
:100860004A0280914B0290E0922BF80191838083A1
:1008700020914C0280914D0290E0922BF7019183E0
:100880008083DF91CF911F910F91FF90EF90DF90C8
:10089000CF90BF90AF909F908F9008952F923F92EE
:1008A0004F925F926F927F928F929F92AF92BF9280
:1008B000CF92DF92EF92FF920F931F93CF93DF932C
:1008C000CDB7DEB72C970FB6F894DEBF0FBECDBF05
:1008D0003C014B015A016901280117011C861B8646
:1008E0001A86198618861F821E821D821C821B8210
:1008F0001A821982CE0101967C018E010D5F1F4F75
:100900009E012B5F3F4FAE01495F5F4FBE01675FA6
:100910007F4FCE010B960E94F6036B857C8588275E
:1009200077FD8095982F0E945D0620E030E040E83A
:1009300058E30E94E906F301608371838283938305
:1009400069857A85882777FD8095982F0E945D06B6
:1009500020E030E040E858E30E94E906F4016083BB
:100960007183828393836F817885882777FD809553
:10097000982F0E945D0620E030E040E858E30E9496
:10098000E906F50160837183828393836D817E81A3
:10099000665D7F4F882777FD8095982F0E945D06C2
:1009A00023E333E343E851E40E94F305F601608357
:1009B0007183828393836B817C816950710988275D
:1009C00077FD8095982F0E945D0623E333E343E88B
:1009D00051E40E94F305F201608371838283938363
:1009E00069817A81635E7F4F882777FD8095982F94
:1009F0000E945D0623E333E343E851E40E94F305DC
:100A0000F10160837183828393832C960FB6F894EF
:100A1000DEBF0FBECDBFDF91CF911F910F91FF9031
:100A2000EF90DF90CF90BF90AF909F908F907F908E
:100A30006F905F904F903F902F900895EF92FF92AC
:100A40000F931F93CF93DF93CDB7DEB72A970FB6DF
:100A5000F894DEBF0FBECDBF8BB180588BB993E049
:100A6000E92E91E0F92E05E011E027E031E049E0C0
:100A700051E06BE071E08DE091E00E94F60360913F
:100A80000D0170910E01882777FD8095982F2AE03F
:100A900030E0AE014F5F5F4F0E944C07CE010196E0
:100AA0000E94C20101E512E0F8016081718180E2DB
:100AB0000E94750060910B0170910C01882777FDF1
:100AC0008095982F2AE030E0AE014F5F5F4F0E9483
:100AD0004C07CE0101960E94C201F801608171812C
:100AE00080E20E9475006091090170910A018827D7
:100AF00077FD8095982F2AE030E0AE014F5F5F4F81
:100B00000E944C07CE0101960E94C201F80160814B
:100B1000718180E20E94750060910501709106016B
:100B2000882777FD8095982F2AE030E0AE014F5F4F
:100B30005F4F0E944C07CE0101960E94C201F8014E
:100B40006081718180E20E947500F801608171818D
:100B50008AE00E9475002A960FB6F894DEBF0FBE99
:100B6000CDBFDF91CF911F910F91FF90EF9008952E
:100B70002FEF89E698E1215080409040E1F700C0D6
:100B800000000E946B012FEF84E39CE02150804025
:100B90009040E1F700C0000078948FE097E2019761
:100BA000F1F700C000008FE091E090935402809331
:100BB00053029093500280934F029093520280937D
:100BC00051020E94D2039FEF29E688E19150204014
:100BD0008040E1F700C000000E941E058FE39CE901
:100BE0000197F1F7F7CF0CD0BAC0B2D040F0A9D03E
:100BF00030F021F45F3F19F09BC05111E4C09EC05A
:100C0000BFD098F39923C9F35523B1F3951B550B26
:100C1000BB27AA2762177307840738F09F5F5F4FCF
:100C2000220F331F441FAA1FA9F333D00E2E3AF010
:100C3000E0E830D091505040E695001CCAF729D02A
:100C4000FE2F27D0660F771F881FBB1F2617370779
:100C50004807AB07B0E809F0BB0B802DBF01FF27A9
:100C600093585F4F2AF09E3F510568F061C0ABC0BA
:100C70005F3FECF3983EDCF3869577956795B795E3
:100C8000F7959F5FC9F7880F911D9695879597F9FE
:100C90000895E1E0660F771F881FBB1F6217730777
:100CA0008407BA0720F0621B730B840BBA0BEE1F8C
:100CB00088F7E0950895E89409C097FB3EF4909575
:100CC0008095709561957F4F8F4F9F4F9923A9F025
:100CD000F92F96E9BB279395F695879577956795B4
:100CE000B795F111F8CFFAF4BB0F11F460FF1BC0F8
:100CF0006F5F7F4F8F4F9F4F16C0882311F096E98B
:100D000011C0772321F09EE8872F762F05C0662338
:100D100071F096E8862F70E060E02AF09A95660FF1
:100D2000771F881FDAF7880F9695879597F90895AA
:100D300097F99F6780E870E060E008959FEF80EC8E
:100D4000089500240A941616170618060906089531
:100D500000240A9412161306140605060895092E97
:100D60000394000C11F4882352F0BB0F40F4BF2B06
:100D700011F460FF04C06F5F7F4F8F4F9F4F089546
:100D800057FD9058440F551F59F05F3F71F047953C
:100D9000880F97FB991F61F09F3F79F08795089521
:100DA000121613061406551FF2CF4695F1DF08C040
:100DB000161617061806991FF1CF8695710561055D
:100DC00008940895E894BB2766277727CB0197F905
:100DD00008950BD0C4CFB5DF28F0BADF18F0952303
:100DE00009F0A6CFABCF1124EECFCADFA0F3959FB9
:100DF000D1F3950F50E0551F629FF001729FBB2702
:100E0000F00DB11D639FAA27F00DB11DAA1F649FAD
:100E10006627B00DA11D661F829F2227B00DA11D60
:100E2000621F739FB00DA11D621F839FA00D611DE6
:100E3000221F749F3327A00D611D231F849F600D07
:100E4000211D822F762F6A2F11249F5750408AF040
:100E5000E1F088234AF0EE0FFF1FBB1F661F771FCC
:100E6000881F91505040A9F79E3F510570F060CF08
:100E7000AACF5F3FECF3983EDCF3869577956795B4
:100E8000B795F795E7959F5FC1F7FE2B880F911DEA
:100E90009695879597F90895FA01CF93FF93EF936D
:100EA000223044F1253234F5C22FE894CA3049F497
:100EB00097FB3EF490958095709561957F4F8F4F8D
:100EC0009F4F2C2F332744275527FF93EF930E94E2
:100ED0009007EF91FF91605D6A330CF0695D61935B
:100EE000B901CA01605070408040904051F716F43B
:100EF000CDE2C19310828F919F91CF910C94800786
:100F0000DC01FC01672F71917723E1F7329704C070
:100F10007C916D9370836291AE17BF07C8F30895FB
:100F2000A1E21A2EAA1BBB1BFD010DC0AA1FBB1FED
:100F3000EE1FFF1FA217B307E407F50720F0A21B5F
:100F4000B30BE40BF50B661F771F881F991F1A94CC
:100F500069F760957095809590959B01AC01BD01F6
:080F6000CF010895F894FFCFC2
:100F68006101000500040003000200010001000007
:0E0F7800000003000000007500A10000000052
:00000001FF
